:020000040000FA
:0400000007EF00F016
:100008000182A0ED09F006EF0BF01A50800B276E65
:100018001A501A242E6E19AE14EF00F016EF00F0E5
:1000280017EF00F02E802E50D8B41DEF00F01FEF10
:1000380000F033EF00F02E28D8A425EF00F027EFCA
:1000480000F02FEF00F0000E176E000E186E000E75
:10005800196E000E1A6E198E1A6A3BEF00F0000E28
:10006800176E000E186E000E196E000E1A6E1E50D6
:10007800800B271A1E501E242F6E1DAE46EF00F06F
:1000880048EF00F049EF00F02F802F50D8B44FEF21
:1000980000F051EF00F065EF00F02F28D8A457EFDB
:1000A80000F059EF00F061EF00F0000E1B6E000E3B
:1000B8001C6E000E1D6E000E1E6E1D8E1E6A6DEFEC
:1000C80000F0000E1B6E000E1C6E000E1D6E000E62
:1000D8001E6E1B501C101D101E10D8A476EF00F0C9
:1000E80078EF00F090EF00F0000E176E000E186E1B
:1000F800000E196E000E1A6E800E19127F0E1A125B
:1001080027501A1217C017F018C018F019C019F0A4
:100118001AC01AF0CFEF01F02E50D8A496EF00F0D5
:1001280098EF00F0A2EF00F0000E176E000E186EA8
:10013800000E196E000E1A6ECFEF01F02F502EC070
:100148001FF0206A1F5E000E205A7F0E1F24286EA3
:10015800000E2020296E17C023F018C024F019C003
:1001680025F01AC026F0000E176E000E186E000E4D
:10017800196E000E1A6E000E2A6E000E2B6E000EFF
:100188002C6E000E2D6E2F6A02EF01F02F50D8B49E
:10019800D0EF00F0D2EF00F0E9EF00F0D89023366E
:1001A800243625362636D8901736183619361A3694
:1001B8002DAEE1EF00F0E3EF00F0E4EF00F0178080
:1001C800D8902A362B362C362D361B50235C1C50E3
:1001D80024581D5025581E502658D8A0F6EF00F078
:1001E800F8EF00F001EF01F02D8C1B50235E1C503E
:1001F800245A1D50255A1E50265A2F2A190E2F648C
:1002080008EF01F00AEF01F0CAEF00F023502410C4
:1002180025102610D8B413EF01F015EF01F02DEFDB
:1002280001F02A802DEF01F0D890173618361936CC
:100238001A362DAE22EF01F024EF01F025EF01F080
:100248001780D8902A362B362C362D362806D8A07B
:10025800290619AE32EF01F034EF01F018EF01F082
:100268002F6A2DAE3AEF01F03CEF01F060EF01F09C
:10027800FF0E2A141F6EFF0E2B14206EFF0E2C1477
:10028800216E7F0E2D14226E1F5020102110221077
:10029800D8B451EF01F053EF01F057EF01F0010E20
:1002A8002F6E60EF01F017A05CEF01F05EEF01F038
:1002B80060EF01F053EF01F02F50D8B466EF01F072
:1002C80068EF01F08CEF01F0010E1726000E1822DE
:1002D80019221A221AA073EF01F075EF01F08CEFC2
:1002E80001F017C01FF018C020F019C021F01AC083
:1002F80022F022342232213220321F321FC017F05E
:1003080020C018F021C019F022C01AF0284A292A62
:1003180029BE97EF01F0295008E12828D8A097EFC7
:1003280001F099EF01F0A4EF01F0000E296E2868A2
:10033800000E176E000E186E000E196E000E1A6E63
:1003480029BEB1EF01F0295006E12804D8B0AFEF7B
:1003580001F0B1EF01F0BDEF01F0296A000E286E3F
:10036800000E176E000E186E000E196E000E1A6E33
:10037800276A28C02EF02EA0C4EF01F0C6EF01F0C6
:10038800C9EF01F0198ECAEF01F0199ED8902E30EE
:100398001A6E84EF00F01200010E2BEC0AF05E6E6C
:1003A8000B0E5E18D8A4DBEF01F0DDEF01F032EFA1
:1003B80002F045C009F046C00AF0ABEC0BF0106E35
:1003C80047C009F048C00AF0ABEC0BF00F6E49C00B
:1003D80009F04AC00AF0ABEC0BF00E6E10C003F047
:1003E800000E76EC0CF00FC003F0010E76EC0CF06A
:1003F8000EC003F0020E76EC0CF0160E046E2F0EF3
:10040800056E800E066E9EEC0AF0AF0E046E2F0E7F
:10041800056EC00E066E9EEC0AF01A0E0D6E5E0E8C
:100428000C6E6E0EE82EFED70C2EFCD70D2EFAD7CA
:1004380000D0446A000E436E43C045F044C046F005
:1004480045C047F046C048F047C049F048C04AF0A8
:10045800010E566E45EC0CF05EEF03F00001A56B43
:10046800A86BAB6B49C002F04AC003F0056A0A0EDC
:10047800046ED4EC0AF00250300F0001AA6F49C094
:1004880002F04AC003F0056A0A0E046E65EC0AF031
:100498000250300F0001A96F47C002F048C003F0B6
:1004A800056A0A0E046ED4EC0AF00250300F0001FF
:1004B800A76F47C002F048C003F0056A0A0E046E31
:1004C80065EC0AF00250300F0001A66F45C002F03B
:1004D80046C003F0056A0A0E046ED4EC0AF0025016
:1004E800300F0001A46F45C002F046C003F0056A52
:1004F8000A0E046E65EC0AF00250300F0001A36F7B
:10050800A90E046E056AC40E066E9EEC0AF0FC0E77
:10051800046E2F0E056EC60E066E9EEC0AF0A60E31
:10052800046E056AC70E066E9EEC0AF0FC0E046E99
:100538002F0E056EC90E066E9EEC0AF0A30E046E11
:10054800056ACA0E066E9EEC0AF0000190519111E0
:10055800D8B4B1EF02F0B3EF02F0EBEF02F0020E05
:1005680043184410D8A4BBEF02F0BDEF02F0C7EF68
:1005780002F0570E046E2F0E056ECA0E066E9EEC24
:100588000AF0EBEF02F043044410D8A4CEEF02F0D7
:10059800D0EF02F0DAEF02F0570E046E2F0E056E60
:1005A800C70E066E9EEC0AF0EBEF02F043504410C3
:1005B800D8A4E1EF02F0E3EF02F0EBEF02F0570E00
:1005C800046E2F0E056EC40E066E9EEC0AF05E04D5
:1005D800D8A4F1EF02F0F3EF02F005EF03F0434A7D
:1005E800442A445009E1030E435CD8A0FEEF02F010
:1005F80000EF03F05EEF03F0446A000E436E5EEF17
:1006080003F0020E5E18D8A40CEF03F00EEF03F00F
:100618005EEF03F0020E43184410D8A416EF03F05F
:1006280018EF03F02AEF03F0454A462A465009E13D
:100638003C0E455CD8A023EF03F025EF03F05EEFF6
:1006480003F0466A000E456E5EEF03F04304441063
:10065800D8A431EF03F033EF03F045EF03F0474A36
:10066800482A485009E13C0E475CD8A03EEF03F009
:1006780040EF03F05EEF03F0486A000E476E5EEF4E
:1006880003F043504410D8A44CEF03F04EEF03F0AE
:100698005EEF03F0494A4A2A4A5009E1180E495CBC
:1006A800D8A059EF03F05BEF03F05EEF03F04A6A5E
:1006B800000E496E1200010E2BEC0AF05E6E0B0E56
:1006C8005E18D8A46AEF03F06CEF03F075EF03F03F
:1006D800546A000E536E010E566E45EC0CF072EF24
:1006E80004F05E04D8A47BEF03F07DEF03F08CEFF9
:1006F80003F04E5007E1060E4D5CD8B086EF03F0CC
:1007080088EF03F08CEF03F04D4A4E2AA1EF03F077
:10071800020E5E18D8A493EF03F095EF03F0A1EF53
:1007280003F04D504E10D8B49CEF03F09EEF03F049
:10073800A1EF03F04D06D8A04E064D504E10D8A498
:10074800A8EF03F0AAEF03F0AEEF03F04E0E5B6ED6
:10075800BFEF03F0060E4D184E10D8A4B6EF03F005
:10076800B8EF03F0BCEF03F0520E5B6EBFEF03F07F
:100778004D50300F5B6E5C6A4D504E10D8B4C7EFC9
:1007880003F0C9EF03F0F7EF03F0140E1B6EAE0E83
:100798001C6E230E1D6E410E1E6E040E88EC0BF0AF
:1007A80002C009F003C00AF00B6A0C6A000EB1EC33
:1007B80005F009C017F00AC018F00BC019F00CC0FA
:1007C8001AF009EC00F017C030F018C031F019C069
:1007D80032F01AC033F09EEC08F030C04BF031C054
:1007E8004CF0FAEF03F04C6A000E4B6E4BC002F06F
:1007F8004CC003F0056A0A0E046ED4EC0AF00250ED
:10080800300F596E4BC002F04CC003F0056A0A0E57
:10081800046E65EC0AF002C04BF003C04CF03B6A72
:10082800010E3A6E38EF04F03A50570FD96EDA6A73
:100838004BC002F04CC003F0056A0A0E046ED4ECFB
:100848000AF00250300FDF6E3A06D8A03B064BC0C4
:1008580002F04CC003F0056A0A0E046E65EC0AF05B
:1008680002C04BF003C04CF04B504C10D8B43FEFD3
:1008780004F041EF04F053EF04F03BBE48EF04F0FE
:1008880046EF04F018EF04F053EF04F03A50570F16
:10089800D96EDA6A200EDF6E3A06D8A03B063BBE58
:1008A8005AEF04F058EF04F04AEF04F05A6AEAEC01
:1008B80009F05B0E046E056AC10E066E9EEC0AF026
:1008C800570E046E056AC30E066E9EEC0AF09A0E69
:1008D800046E056AC70E066E9EEC0AF000018C5184
:1008E8004D1809E18D514E18D8B47DEF04F07FEF13
:1008F80004F0D3EF04F04DC08CF04EC08DF05BC017
:1009080002F051500A0DF35018EC0CF057C002F0E9
:1009180051500A0DF32818EC0CF058C002F0515051
:100928000A0DF350020F18EC0CF059C002F05150A8
:100938000A0DF350030F18EC0CF09AC002F0515056
:100948000A0DF350040F18EC0CF09BC002F0515044
:100958000A0DF350050F18EC0CF09DC002F0515031
:100968000A0DF350060F18EC0CF09EC002F051501F
:100978000A0DF350070F18EC0CF0A0C002F051500C
:100988000A0DF350080F18EC0CF0A1C002F05150FA
:100998000A0DF350090F18EC0CF0514A522A1200B4
:1009A800010E2BEC0AF05E6E5E04D8A4DEEF04F0B4
:1009B800E0EF04F0F2EF04F050BEEBEF04F050501B
:1009C80008E14F04D8A0EBEF04F0EDEF04F0F2EFEC
:1009D80004F04F06D8A0500625EF05F0020E5E1869
:1009E800D8A4F9EF04F0FBEF04F010EF05F0FF0EC8
:1009F8005124076EFF0E5220086E07504F5C0850B6
:100A08005058D8B00AEF05F00CEF05F010EF05F0DC
:100A18004F4A502A25EF05F00C0E5E18D8A417EFA0
:100A280005F019EF05F025EF05F000018E698F69D3
:100A3800506A000E4F6E010E566E45EC0CF0B0EF8A
:100A480005F0090E4F185010D8A42DEF05F02FEF20
:100A580005F036EF05F0C00E046E410E93EC0CF075
:100A68003CEF05F0C00E046E4F50310F93EC0CF0C4
:100A780000018E514F1809E18F515018D8B447EF33
:100A880005F049EF05F0B0EF05F04FC08EF050C00B
:100A98008FF04F500A0DF350D2EC0CF05B6E4F50B4
:100AA8000A0DF328D2EC0CF0576E4F500A0DF35094
:100AB800020FD2EC0CF0586E4F500A0DF350030F92
:100AC800D2EC0CF0596E4F500A0DF350040FD2ECD3
:100AD8000CF000019A6F4F500A0DF350050FD2EC3D
:100AE8000CF000019B6F3A0E9C6F4F500A0DF350AB
:100AF800060FD2EC0CF000019D6F4F500A0DF35019
:100B0800070FD2EC0CF000019E6F3A0E9F6F4F500A
:100B18000A0DF350080FD2EC0CF00001A06F4F50F3
:100B28000A0DF350090FD2EC0CF00001A16F5B0E17
:100B3800046E056AC20E066E9EEC0AF0570E046E2D
:100B4800056AC40E066E9EEC0AF09A0E046E056ADB
:100B5800C80E066E9EEC0AF01200116E1150D8B441
:100B6800B8EF05F0BAEF05F0DCEF05F00CBEC1EF09
:100B780005F0BFEF05F0DCEF05F009C00DF00AC085
:100B88000EF00BC00FF00CC010F00D1E0E1E0F1E45
:100B9800101E0D2A000E0E220F2210220DC013F077
:100BA8000EC014F00FC015F010C016F0E4EF05F0F9
:100BB80009C013F00AC014F00BC015F00CC016F0F1
:100BC80009500A100B100C10D8A4EDEF05F0EFEF48
:100BD80005F0F9EF05F0000E096E000E0A6E000E22
:100BE8000B6E000E0C6E8AEF06F0960E126E03EF77
:100BF80006F0122AD8901632153214321332000E2B
:100C080013140D6E000E14140E6E000E15140F6ED4
:100C1800FE0E1614106E0D500E100F101010D8A4E2
:100C280018EF06F01AEF06F0FDEF05F028EF06F0D2
:100C3800122A010E1326000E142215221622D8900D
:100C48001632153214321332000E13140D6E000EC4
:100C580014140E6E000E15140F6EFF0E1614106E7F
:100C68000D500E100F101010D8A43DEF06F03FEFF6
:100C780006F01CEF06F047EF06F01206D890133680
:100C880014361536163615BE4CEF06F04EEF06F044
:100C980056EF06F0020E126054EF06F056EF06F01B
:100CA80041EF06F012B05BEF06F05DEF06F05EEF85
:100CB80006F0159ED890123212C00DF00E6A0F6A17
:100CC800106A0DC010F00F6A0E6A0D6A0D501312EB
:100CD8000E5014120F501512105016121150D8B48D
:100CE80078EF06F07AEF06F082EF06F00CBE81EF9F
:100CF80006F07FEF06F082EF06F0168E13C009F0BB
:100D080014C00AF015C00BF016C00CF0120056EC17
:100D18000CF02DEF07F07C0E046E2F0E056E800E82
:100D2800066E9EEC0AF05FEC03F02DEF07F0F80E6C
:100D3800046E2F0E056E800E066E9EEC0AF0560E9F
:100D4800046E2F0E056EC00E066E9EEC0AF021ECA6
:100D580009F02DEF07F051505210D8A4B6EF06F065
:100D6800B8EF06F0C2EF06F08D0E046E2F0E056E7A
:100D7800800E066E9EEC0AF02DEF07F09E0E046EB4
:100D88002F0E056E800E066E9EEC0AF0D4EC04F071
:100D98002DEF07F06B0E046E2F0E056E800E066E9B
:100DA8009EEC0AF0D0EC01F02DEF07F051505210F4
:100DB800D8A4E1EF06F0E3EF06F0EBEF06F0040E3F
:100DC800036E2F0E046E35EC0BF0F9EF06F09F0E54
:100DD800036E2E0E046E35EC0BF0E30E036E2E0E32
:100DE800046E35EC0BF054EC07F0010E566E4D0E08
:100DF8003D6E190E3C6E500EE82EFED73C2EFCD7E9
:100E08003D2EFAD745EC0CF02DEF07F0526A000E94
:100E1800516E5A0E046E2F0E056E800E066E9EECF5
:100E28000AF0AF0E046E2F0E056EC00E066E9EEC15
:100E38000AF0010E566E1A0E3D6E5E0E3C6E6E0E78
:100E4800E82EFED73C2EFCD73D2EFAD700D006EF71
:100E580007F056503C6E3D6A3D50000AD8B437EF53
:100E680007F02DEF07F03C50000AD8B48FEF06F0DA
:100E7800010AD8B49BEF06F0030AD8B4AFEF06F026
:100E8800010AD8B4CEEF06F0070AD8B4DAEF06F0B4
:100E9800010AD8B40AEF07F02DEF07F007EF00F0CA
:100EA8002A6A000E296E20EE60F010EE0EF0090E90
:100EB800DBCFE3FFE806FCE220EE7DF010EE18F051
:100EC800070EDBCFE3FFE806FCE220EE85F010EE2C
:100ED80007F0060EDBCFE3FFE806FCE220EE74F035
:100EE80010EE20F0080EDBCFE3FFE806FCE2F8EF97
:100EF80007F0090E29182A10D8A485EF07F087EF04
:100F080007F08DEF07F0310E116E300E126E92EF72
:100F180007F02950310F116E200E126E470E086E21
:100F280029500A0DF350D2EC0CF0096E29500A0D25
:100F3800F328D2EC0CF0196E29500A0DF350020F69
:100F4800D2EC0CF01A6E29500A0DF350030FD2ECB4
:100F58000CF01B6E29500A0DF350040FD2EC0CF064
:100F6800206E29500A0DF350050FD2EC0CF0216EBB
:100F78003A0E226E29500A0DF350060FD2EC0CF0EF
:100F8800236E29500A0DF350070FD2EC0CF0246E93
:100F98003A0E256E29500A0DF350080FD2EC0CF0CA
:100FA800266E29500A0DF350090FD2EC0CF0276E6B
:100FB8000E0E036E046A35EC0BF0180E036E046A0D
:100FC80035EC0BF0070E036E046A35EC0BF0200EBF
:100FD800036E046A35EC0BF0BF0E036E2E0E046E22
:100FE80035EC0BF0294A2A2A5150295C52502A58CC
:100FF800D8A001EF08F003EF08F07DEF07F0C20E6C
:10100800036E2E0E046E35EC0BF0270E046E2F0EB9
:10101800056E800E066E9EEC0AF0380E046E2F0EDA
:10102800056EC00E066E9EEC0AF01200819A818C45
:10103800818E81B222EF08F024EF08F027EF08F044
:10104800010E9DEF08F081B42CEF08F02EEF08F0A8
:1010580031EF08F0040E9DEF08F081B636EF08F086
:1010680038EF08F03BEF08F0070E9DEF08F081B865
:1010780040EF08F042EF08F045EF08F00A0E9DEF48
:1010880008F0818A819C818E81B24DEF08F04FEF84
:1010980008F052EF08F0020E9DEF08F081B457EF08
:1010A80008F059EF08F05CEF08F0050E9DEF08F026
:1010B80081B661EF08F063EF08F066EF08F0080EFC
:1010C8009DEF08F081B86BEF08F06DEF08F070EF56
:1010D80008F00B0E9DEF08F0818A818C819E819E1D
:1010E80081B279EF08F07BEF08F07EEF08F0030E8D
:1010F8009DEF08F081B483EF08F085EF08F088EFE2
:1011080008F0060E9DEF08F081B68DEF08F08FEF1E
:1011180008F092EF08F0090E9DEF08F081B897EFFC
:1011280008F099EF08F09CEF08F00C0E9DEF08F01E
:10113800FF0E120032343334396E3950D8A4A7EF79
:1011480008F0A9EF08F0B3EF08F0000E306E000EBB
:10115800316E000E326E000E336E20EF09F030C093
:1011680034F031C035F032C036F033C037F0200EDD
:10117800C3EF08F0D8903732363235323432E82EA1
:10118800BEEF08F03450386E328EFF0E3016FF0E68
:101198003116FF0E3216000E3316960E395E39BE22
:1011A800DAEF08F0D8EF08F0F0EF08F03950800ACD
:1011B800970FD8B0E2EF08F0E4EF08F0E6EF08F098
:1011C800A9EF08F0D8903332323231323032393E1A
:1011D800E6EF08F008EF09F01F0E3964F6EF08F0A3
:1011E800F8EF08F000EF09F0A9EF08F0D8903036D2
:1011F80031363236333639063950D8A406EF09F07D
:1012080008EF09F0FAEF08F03850D8B40EEF09F0FB
:1012180010EF09F018EF09F0331E321E311E306C42
:10122800000E31223222332230C030F031C031F08A
:1012380032C032F033C033F0120020EE6AF010EE04
:1012480008F0090EDBCFE3FFE806FCE2010E2BEC09
:101258000AF05E6E0C0E5E18D8A435EF09F037EF71
:1012680009F03CEF09F0566A45EC0CF09FEF09F0E5
:101278000B0E5E18D8A443EF09F045EF09F04CEFC8
:1012880009F045EC0CF05350020F566E9FEF09F031
:101298005E04D8A452EF09F054EF09F066EF09F0A4
:1012A80054BE62EF09F0545007E1030E535CD8B006
:1012B80060EF09F062EF09F066EF09F0534A542A2B
:1012C8007FEF09F0020E5E18D8A46DEF09F06FEFFA
:1012D80009F07FEF09F054BE7AEF09F0545008E1A5
:1012E8005304D8A07AEF09F07CEF09F07FEF09F0FA
:1012F8005306D8A054065350020DF350080FD96E68
:10130800DA6ADECF04F0DDCF05F0830E066E9EECC0
:101318000AF05350020DF3CF07F0020E07260750CC
:10132800080FD96EDA6ADECF04F0DDCF05F0C30E00
:10133800066E9EEC0AF012000600F2A4A6EF09F071
:10134800A8EF09F0E8EF09F0080ED624D66E000ED3
:10135800D720D76E030E5618D8A4B5EF09F0B7EF0B
:1013680009F0E0EF09F0414A422A100E415C270ECD
:101378004258D8B0C2EF09F0C4EF09F0CAEF09F03B
:101388000001916B010E906FE7EF09F0200E415CB0
:101398004E0E4258D8B0D3EF09F0D5EF09F0DBEF85
:1013A80009F00001916B000E906FE7EF09F0426AB7
:1013B800000E416EE7EF09F0426A000E416E00012F
:1013C800916B000E906FF29401921100020E30ECB6
:1013D8000CF03E6E010E30EC0CF03F6E000E30EC5F
:1013E8000CF0406E3EACFBEF09F0FDEF09F009EFA1
:1013F8000AF03E380F0B010B300F00019A6F3E5078
:101408000F0B300F9B6F13EF0AF03E380F0B030BD7
:10141800300F00019A6F3E500F0B300F9B6F3A0E42
:101428009C6F3F380F0B0F0B300F9D6F3F500F0B0A
:10143800300F9E6F3A0E9F6F40380F0B0F0B300F17
:10144800A06F40500F0B300FA16FA26B1200026EFD
:101458000204D8A432EF0AF034EF0AF057EF0AF08A
:101468001AEC08F0556E5528D8B43DEF0AF03FEF56
:101478000AF04BEF0AF05D50D8B445EF0AF047EF99
:101488000AF04BEF0AF05D6A555064EF0AF05528F0
:10149800D8A451EF0AF053EF0AF063EF0AF0010EF7
:1014A8005D6E63EF0AF00250D8A45DEF0AF05FEFBB
:1014B8000AF063EF0AF01AEC08F064EF0AF0FF0E86
:1014C8001200076A000E066E04500510D8B46FEFBC
:1014D8000AF071EF0AF099EF0AF0010E086E79EF41
:1014E8000AF0D89004360536082A05AE7EEF0AF0D1
:1014F80080EF0AF075EF0AF0D890063607360450E8
:10150800025C05500358D8A08CEF0AF08EEF0AF061
:1015180093EF0AF00450025E0550035A0680D890F3
:1015280005320432082E80EF0AF006C002F007C028
:1015380003F01200000E026E0650C9EC0BF0BBEF70
:101548000AF0010E026E04C0F6FF05C0F7FFF86A44
:10155800050EF76403D00800F55005D0F6CFE9FF73
:10156800F7CFEAFFEF50C9EC0BF0044A052A04C094
:10157800F6FF05C0F7FFF86A050EF76403D0080008
:10158800F55005D0F6CFE9FFF7CFEAFFEF50000995
:10159800D8A4D1EF0AF0D3EF0AF0A5EF0AF01200B1
:1015A80004500510D8B4DBEF0AF0DDEF0AF001EFC4
:1015B8000BF0010E066EE5EF0AF0D89004360536FA
:1015C800062A05AEEAEF0AF0ECEF0AF0E1EF0AF0BE
:1015D8000450025C05500358D8A0F5EF0AF0F7EF65
:1015E8000AF0FBEF0AF00450025E0550035AD89047
:1015F80005320432062EECEF0AF002C002F003C0F6
:1016080003F01200000EF66E180EF76E000EF86E5C
:1016180000EE60F010EE30F00900F5CFEEFFE55077
:10162800E150FAE1F40EF66E190EF76E000EF86E40
:101638000900F5CF5DF00900F5CF5EF000EE90F0FF
:101648001C0EEE6AE806FDE100EE3EF01F0EEE6AA3
:10165800E806FDE101900192000EF86E00018BEFA3
:1016680006F04BEF0BF003C0F6FF04C0F7FFF86A73
:10167800050EF76403D00800F55005D0F6CFE9FF52
:10168800F7CFEAFFEF509FEC0CF0034A042A03C09F
:10169800F6FF04C0F7FFF86A050EF76403D00800E8
:1016A800F55005D0F6CFE9FFF7CFEAFFEF50000974
:1016B800D8A461EF0BF063EF0BF037EF0BF01200DB
:1016C800000E30EC0CF0056E05508009036E000E1C
:1016D80076EC0CF0020E30EC0CF0056E055040096B
:1016E800036E020E76EC0CF0930E036E070E76EC8A
:1016F8000CF0000E30EC0CF0056E05507F0B036EFD
:10170800000E76EC0CF01200086E08C004F0D890B9
:101718000436D8900436C250C30B0410C26EC2827D
:10172800C2B299EF0BF09BEF0BF094EF0BF0C350A4
:10173800C4CF04F0056A04C005F0046A0410066EFC
:101748000550076E06C002F007C003F012000B6ACE
:1017580009C002F00AC003F0056A0A0E046E65ECBF
:101768000AF002500B100B6E0B38F00B0B6E09C011
:1017780002F00AC003F0056A0A0E046ED4EC0AF0FF
:1017880002500B100B6E0B501200036E02B0CFEF1D
:101798000BF0D2EF0BF08282D3EF0BF0829203C0F2
:1017A80083FF82848294958E82808292828482943E
:1017B80083BEE1EF0BF0E3EF0BF0DAEF0BF0829072
:1017C800959E1200956A9450F80B946E8290000EC4
:1017D800026E020EC9EC0BF0000E026E380EC9EC58
:1017E8000BF0000E026E0C0EC9EC0BF0000E026E30
:1017F800010EC9EC0BF01200202020202020202010
:101808002000CE2FC02FEA2FDC2F4F2F20202020A2
:101818002020202000202020202020200020202000
:1018280020202000FFFFFFFF036E03C0A9FF02C0B6
:10183800A8FFA69EA69CA684F29E550EA76EAA0E89
:10184800A76EA682F28EA1A82CEF0CF02EEF0CF05A
:1018580027EF0CF0A1981200036EEBEC0CF0D00E01
:10186800DBEC0CF00350DBEC0CF0EFEC0CF0D10EE1
:10187800DBEC0CF0E1EC0CF0046EE7EC0CF004503F
:101888001200490E046E2F0E056E800E066E9EEC39
:101898000AF0490E046E2F0E056EC00E066E9EEC01
:1018A8000AF0120085EC0CF0E6EC0BF0ABEC0CF057
:1018B80066EC0CF0B6EC0CF064EC0BF0C0EC0CF041
:1018C800566A1200948E949CAC9CAC8AAC98AC96E8
:1018D800AC84AB8EAB9CAB88B896810EAF6E9E98ED
:1018E8009E9A1200046EEBEC0CF0D00EDBEC0CF0C0
:1018F8000450DBEC0CF00350DBEC0CF0E7EC0CF0E4
:101908001200C08EC09AC088C096C090C082C09491
:10191800C292C19AC198C46AC36AC2801200056E95
:10192800000E026E0450C9EC0BF0010E026E055059
:10193800C9EC0BF01200026E9EA8A5EF0CF0A7EF01
:101948000CF0A0EF0CF09E9802C0ADFF1200948638
:101958009488280EC66E310EC86EC79CC78E9E9698
:10196800A1961200D58CD59AD58ED586D76A060E43
:10197800D66EF294F28A12000F0EC16E1E0E936E8E
:10198800F19E8150E009816E12009EA6CEEF0CF008
:10199800D0EF0CF0C9EF0CF09E961200026E02C058
:1019A800A9FFA694A69EA69CA680A8501200026E27
:1019B80002C0C9FFC9EC0CF01200F3EC0CF0F7EC14
:1019C8000CF0C9501200C584C9EC0CF01200C58097
:1019D800C9EC0CF01200C582C9EC0CF01200C586E7
:0E19E800C9EC0CF01200C58AC588120001FF80
:102E9E00000D0A2053492E4E4F20202053504545F9
:102EAE00442020474541522020202054494D4520A2
:102EBE00200D0A002D2D2D2D2D2D2D2D2D2D2D2DB1
:102ECE002D7878782D2D2D2D2D2D2D2D2D2D2D2D43
:102EDE002D2D0D0A002D2D2D2D2D2D2D2D2D2D2D84
:102EEE002D2D2D2D2D2D2D2D2D2D2D2D2D2D2D2D04
:102EFE002D2D2D0D0A000D0A4C6F6720697320458C
:102F0E004D505459210D0A00202054494D4520534F
:102F1E0045542020202020200020446F776E6C6FB7
:102F2E00616420202020202020002020202020202E
:102F3E00436F6D706C657465642000202020202026
:102F4E00202020202020202020202000204C4F4711
:102F5E0020434C4541524544202020200020202073
:102F6E002048483A4D4D3A535320202020004752D6
:102F7E002053504420202054494D4520202000202D
:102F8E002020204C6F6720456D7074792020200022
:102F9E002347522053504420202054494D45202091
:102FAE00002020205355434345535346554C4C590E
:102FBE0020005365742054696D6520202020200068
:102FCE0056696577204C6F67202020202000436CC7
:102FDE00656172204C6F672020202000446F776E51
:102FEE006C6F6164204C6F6720002D3E20003A000C
:012FFE0000D2
:020000040020DA
:08000000FFFFFFFFFFFFFFFF00
:020000040030CA
:0E000000FF071F1FFF8285FF0FC00FE00F409C
:00000001FF
